:100000000C943E000C9448000C9448000C9448005A
:100010000C9448000C9448000C9448000C94480040
:100020000C9448000C9448000C9448000C94480030
:100030000C9448000C9448000C9448000C94480020
:100040000C9448000C9448000C9448000C94480010
:100050000C9448000C9448000C9448000C94480000
:100060000C9448000C9448000C9448000C944800F0
:100070000C9448000C9448000C94480011241FBEB6
:10008000CFEFD8E0DEBFCDBF0E947E000C9492007F
:100090000C940000E0E8F0E0808183628083E1E876
:1000A000F0E080818B6080830895ECE7F0E0808150
:1000B00080648083EAE7F0E08081876080838081CC
:1000C00080688083089590917C00987F90937C0055
:1000D00090917C008770982B90937C0080917A009F
:1000E000806480937A0080917A0086FDFCCF8091B5
:1000F00078002091790090E0922B089511B88FEF4D
:1001000082B98AB90E944A000E94550010928B0061
:1001100010928A0080E00E94630090938B0080938D
:080120008A00F8CFF894FFCF2C
:00000001FF
